:200000000C94EB030C9413040C9413040C9413040C9413040C9413040C9413040C94130451
:200020000C9413040C9413040C9472150C943E140C9413040C9413040C9413040C9413045D
:200040000C9413040C94A2060C9413040C9413040C9413040C9413040C9413040C94520E0E
:200060000C9413040C9413040C9413040C9413040C9413040C9413040C9413040C941304C8
:200080000C9413040C9413040C9413040C9413040C9413040C9413040C9413040C941304A8
:2000A0000C9413040C9413040C941304860F890F780F7C0F820FAA0FAA0FAA0F8D0F910FE4
:2000C000950F9B0F9F0FAA0FA50F00000000003E5B4F5B3E3E6B4F6B3E1C3E7C3E1C183C11
:2000E0007E3C181C577D571C1C5E7F5E1C00183C1800FFE7C3E7FF0018241800FFE7DBE761
:20010000FF30483A060E2629792926407F050507407F05253F5A3CE73C5A7F3E1C1C0808F3
:200120001C1C3E7F14227F22145F5F005F5F06097F017F006689956A606060606094A2FF52
:20014000A29408047E040810207E201008082A1C08081C2A08081E101010100C1E0C1E0C7B
:2001600030383E3830060E3E0E06000000000000005F00000007000700147F147F14242A16
:200180007F2A12231308646236495620500008070300001C2241000041221C002A1C7F1C6A
:2001A0002A08083E080800807030000808080808000060600020100804023E5149453E0016
:2001C000427F400072494949462141494D331814127F1027454545393C4A494931412111A8
:2001E00009073649494936464949291E00001400000040340000000814224114141414141E
:20020000004122140802015909063E415D594E7C1211127C7F494949363E414141227F41D1
:2002200041413E7F494949417F090909013E414151737F0808087F00417F41002040413F4D
:20024000017F081422417F404040407F021C027F7F0408107F3E4141413E7F090909063ECB
:200260004151215E7F09192946264949493203017F01033F4040403F1F2040201F3F4038F0
:20028000403F631408146303047804036159494D43007F4141410204081020004141417F0E
:2002A00004020102044040404040000307080020545478407F284444383844444428384450
:2002C00044287F385454541800087E090218A4A49C787F0804047800447D40002040403DFD
:2002E000007F1028440000417F40007C047804787C080404783844444438FC1824241818C3
:20030000242418FC7C08040408485454542404043F44243C4040207C1C2040201C3C40301A
:20032000403C44281028444C9090907C4464544C44000836410000007700000041360800E0
:2003400002010204023C2623263C1EA1A161123A4040207A385454555921555579412254FB
:20036000547842215554784020545579400C1E527212395555555939545454593955545416
:20038000580000457C410002457D420001457C407D1211127DF0282528F07C5455450020ED
:2003A00054547C547C0A097F4932494949323A4444443A324A4848303A4141217A3A4240A0
:2003C0002078009DA0A07D3D4242423D3D4040403D3C24FF2424487E4943662B2FFC2F2BA2
:2003E000FF0929F620C0887E090320545479410000447D413048484A32384040227A007A56
:200400000A0A727D0D19317D2629292F28262929292630484D4020380808080808080808D2
:20042000382F10C8ACBA2F102834FA00007B000008142A142222142A1408AA005500AAAABC
:2004400055AA55AA000000FF00101010FF00141414FF001010FF00FF1010F010F0141414CB
:20046000FC001414F700FF0000FF00FF1414F404FC141417101F10101F101F1414141F0011
:20048000101010F0000000001F101010101F10101010F010000000FF1010101010101010FF
:2004A00010FF10000000FF140000FF00FF00001F10170000FC04F414141710171414F4044C
:2004C000F40000FF00F714141414141414F700F7141414171410101F101F141414F414108F
:2004E00010F010F000001F101F0000001F14000000FC140000F010F01010FF10FF14141411
:20050000FF141010101F00000000F010FFFFFFFFFFF0F0F0F0F0FFFFFF0000000000FFFFD3
:200520000F0F0F0F0F3844443844FC4A4A4A347E02020606027E027E026355494163384475
:20054000443C04407E201E2006027E020299A5E7A5991C2A492A1C4C7201724C304A4D4DA8
:20056000303048784830BC625A463D3E494949007E0101017E2A2A2A2A2A44445F4444404F
:20058000514A444040444A51400000FF0103E080FF000008086B6B083612362436060F0997
:2005A0000F06000018180000001010003040FF0101001F01011E00191D1712003C3C3C3CD7
:2005C0000000000000070605040100080A0B0C0D090000000200090F0000030401000C0097
:2005E00000000000000000000000000000000004080201104080401020408040800802041E
:20060000018040201002012080102040400404040404030405020202020403020202020659
:20062000060606060604040202020400000000250028002B002E0031000000000024002768
:20064000002A002D003000080B000202020100090400000102020000052400100105240183
:2006600001010424020605240600010705810310004009040100020A0000000705020240CE
:2006800000000705830240000000C18081C112010002020000404F1B0692000101020001A8
:2006A00012010002000000404F1B0692000101020001537061726B46756E00537061726BB3
:2006C00046756E2050726F204D6963726F000403090400000000000000002A2B28000000F5
:2006E0000000000000000000000000000000000000002C9EB4A0A1A2A434A6A7A5AE362DBE
:200700003738271E1F20212223242526B333B62EB7B89F8485868788898A8B8C8D8E8F9037
:200720009192939495969798999A9B9C9D2F3130A3AD350405060708090A0B0C0D0E0F1077
:200740001112131415161718191A1B1C1DAFB1B0B50009040200010300000009210101006A
:20076000012265000705840340000105010902A1010901A1008501050919012903150025AB
:200780000195037501810295017505810305010930093109381581257F750895038106C0E3
:2007A000C005010906A1018502050719E029E7150025017501950881029501750881039529
:2007C000067508150025650507190029658100C08C06DF10641711241FBECFEFDAE0DEBFE0
:2007E000CDBF13E0A0E0B1E0EAEEFFE202C005900D92A63AB107D9F724E0A6EAB3E001C06A
:200800001D92A23BB207E1F717E0C6EDD7E004C02297FE010E94D017C03DD107C9F70E941E
:20082000FD100C94F3170C9400006F927F928F929F92AF92BF92CF92DF92EF92FF920F93E5
:200840001F93CF93DF9340E051EE60E070E08CE494E00E94D91044E068E28AEF93E00E94B8
:20086000B10D62E38AEF93E00E94540D8AEF93E00E946B0D8AEF93E00E943E0E61E08AEFEC
:2008800093E00E94430C61E070E08AEF93E00E94490C40E050E060E070E08AEF93E00E9412
:2008A0003D0C67E073E08AEF93E00E945B1166E273E08AEF93E00E945B1166E273E08AEFB2
:2008C00093E00E945B1166E273E08AEF93E00E945B1166E273E08AEF93E00E945B116EE01F
:2008E00073E08AEF93E00E945B118AEF93E00E946B0D68E873E180E090E00E94BF0E8AEF49
:2009000093E00E943E0E8AE090E09093F3038093F2031092D3031092D20324EB30E03093AA
:20092000CB032093CA034AE550E05093C3034093C20381E090E09093B3038093B20389E0EE
:2009400090E09093F5038093F4038CE390E09093D5038093D40365EA70E07093CD036093D9
:20096000CC0368E970E07093C5036093C4031092B5031092B40366E070E07093F703609349
:20098000F60368E270E07093D7036093D6033093CF032093CE035093C7034093C60342E097
:2009A00050E05093B7034093B60345E050E05093F9034093F8039093D9038093D80330932C
:2009C000D1032093D0039093C9038093C80383E090E09093B9038093B80382EF682E83E006
:2009E000782EC6EAD3E002EC13E09AEE892E93E0992E22EEA22E23E0B22E3AEBC32E33E0A8
:200A0000D32E44E0E42EF12CF301619171913F01CE010E94F807F80160817181CE010E94AD
:200A20003F08F401119211924F01F501119211925F01F801819191918F01F601819391935C
:200A40006F01F1E0EF1AF1082396E114F104E1F6DF91CF911F910F91FF90EF90DF90CF90DD
:200A6000BF90AF909F908F907F906F9008956F927F928F929F92AF92BF92CF92DF92EF92A6
:200A8000FF920F931F93CF93DF9365E070E080E090E00E94BF0E52EB652E53E0752E6AEECB
:200AA000862E63E0962EC6EAD3E07AEDE72E73E0F72E02EE13E0E2EFAE2EE3E0BE2EC12CF8
:200AC000D12CF3018081F2E06F0E711C0E943D0FF40191838083CE010E94C108F701918308
:200AE0008083F401208131812D31F2E03F076CF0F80111821082F601E653FC4F20813181ED
:200B000082179307A4F401960FC0203131400CF5F80111821082F601EE52FC4F20813181EE
:200B20002817390724F40197F70191838083CE010E942709811106C0F50160817181CE01E6
:200B40000E94F807F70160817181CE010E943F0806C0F80180819181019691838083F801F8
:200B6000808191818536910534F0CE010E94FE07F80111821082F2E0CF0ED11C42E0840E09
:200B8000911C239682E0E80EF11C0E5F1F4F92E0A90EB11CE8E0CE16D10409F092CF8AEF65
:200BA00093E00E943E0E61E08AEF93E00E94430C61E070E08AEF93E00E94490C40E050E0F2
:200BC00060E070E08AEF93E00E943D0C6DE173E08AEF93E00E944E116091DA037091DB0373
:200BE0004AE050E08AEF93E00E94221267EF8AEF93E00E946D1168E273E08AEF93E00E944C
:200C00004E116091DC037091DD034AE050E08AEF93E00E94221267EF8AEF93E00E946D1146
:200C200061E373E08AEF93E00E944E116091DE037091DF034AE050E08AEF93E00E9422125F
:200C400067EF8AEF93E00E946D116BE373E08AEF93E00E944E116091E0037091E1034AE0C1
:200C600050E08AEF93E00E94221267EF8AEF93E00E946D1166E273E08AEF93E00E945B118B
:200C80006091EA037091EB034AE050E08AEF93E00E94221264E473E08AEF93E00E944E11E3
:200CA0006091EC037091ED034AE050E08AEF93E00E94221264E473E08AEF93E00E944E11BF
:200CC0006091EE037091EF034AE050E08AEF93E00E94221264E473E08AEF93E00E944E119B
:200CE0006091F0037091F1034AE050E08AEF93E00E942A128AEF93E0DF91CF911F910F91EB
:200D0000FF90EF90DF90CF90BF90AF909F908F907F906F900C946B0DCF93DF9327E048E0F2
:200D200064E08AEF93E00E94BB0CC6EAD3E0CE010E945E07239683E0C23BD807C1F7DF91C1
:200D4000CF9108951F920F920FB60F9211242F933F934F935F936F937F938F939F93AF9397
:200D6000BF93EF93FF9380911D0487FF05C010928500109284001AC020911D04332727FD19
:200D8000309580911C0490E0281739077CF480911D04992787FD9095FC01EE0FFF1FE80F54
:200DA000F91FE25EFB4F808186FD15C080911D048F5F80931D0420911D04332727FD3095CF
:200DC00080911C0490E028173907BCF480911D048C305CF112C080911D04992787FD90959B
:200DE000FC01EE0FFF1FE80FF91FE25EFB4F808160E08F730E94E40FD9CF8091840090910C
:200E00008500049680349C4918F480E49CE905C080918400909185000496909389008093CC
:200E200088008FEF80931D0438C0209184003091850080911D04992787FD9095FC01EE0F70
:200E4000FF1FE80FF91FE25EFB4F81819281820F931F909389008093880080911D0499274A
:200E600087FD9095FC01EE0FFF1FE80FF91FE25EFB4F808186FF11C080911D04992787FD4B
:200E80009095FC01EE0FFF1FE80FF91FE25EFB4F808161E08F730E94E40FFF91EF91BF9143
:200EA000AF919F918F917F916F915F914F913F912F910F900FBE0F901F90189520911C04FA
:200EC0002C30A0F431E0320F30931C04FC012083822F90E0FC01EE0FFF1FE80FF91FE25EC5
:200EE000FB4F88EB9BE09283818308952FEFFC0120830895DF92EF92FF920F931F93CF9370
:200F0000DF93EC01D62E7A01890188818C3008F066C061E08D2D0E94AB0F8881A82FB0E0BF
:200F2000FD01EE0FFF1FEA0FFB1FE25EFB4F2D2D2F739081907C922B908360E272E06E19F7
:200F40007F0977FF02C06D5F7F4F7595679575956795698340E659E0401B510B57FF02C011
:200F60004D5F5F4F55954795559547954A836CE00E9481179CE0899FB001112420E030E09E
:200F8000A901460F571FFA01EE0FFF1FE40FF51FE25EFB4F908196FD16C02F5F3F4F2C3043
:200FA000310571F781110FC01092800082E0809381001092850010928400B19A80916F0002
:200FC000826080936F00888190E0FC01EE0FFF1FE80FF91FE25EFB4F808180648083888192
:200FE000DF91CF911F910F91FF90EF90DF90089520E639E040E252E00C947A07FC01808125
:2010000090E0FC01EE0FFF1FE80FF91FE25EFB4F80818F7B80830895FC0180818C3070F5E5
:20102000918128E830E0291B310997FD3395220F331F220F331F621773077CF0928128E51F
:2010400032E0291B310997FD3395220F331F220F331F621773070CF49B0122503109220F32
:20106000331F4FB7F89490E0FC01EE0FFF1FE80FF91FE25EFB4F328321834FBF08954F9286
:201080005F926F927F92AF92BF92CF92DF92EF92FF920F931F93CF93DF93EC01603282E0CE
:2010A00078070CF040C077FD06C0653B71052CF064EB70E002C060E070E0898128E830E02E
:2010C000281B310987FD3395220F331F220F331F5901CC24B7FCC094DC2C882777FD8095B0
:2010E000982F2A8148E552E0421B510927FD5395440F551F440F551F2A01662457FC6094D2
:20110000762C7F926F925F924F9214EBE12EF12C00E010E020E030E0A9010E94E6150F9058
:201120000F900F900F90CE01DF91CF911F910F91FF90EF90DF90CF90BF90AF907F906F906B
:201140005F904F900C940C08FC0180818F3FB1F090E0FC01EE0FFF1FE80FF91FE25EFB4F7F
:201160008181928143E0880F991F4A95E1F754E0969587955A95E1F70296089580E090E0EA
:2011800008954F925F926F927F92AF92BF92CF92DF92EF92FF920F931F93CF93DF9300D060
:2011A00000D0CDB7DEB7FC01228148E552E0421B510927FD5395440F551F440F551F2A01CB
:2011C000662457FC6094762C418128E830E0241B310947FD3395220F331F220F331F4427C4
:2011E00037FD4095542F29833A834B835C830E94A4080196BC01882777FD8095982F1F92FB
:201200001F921F92E4EBEF93A12CB12C65018301720129813A814B815C810E94E6150F90CA
:201220000F900F900F90CB010F900F900F900F90DF91CF911F910F91FF90EF90DF90CF908D
:20124000BF90AF907F906F905F904F900895FC01808190E0FC01EE0FFF1FE80FF91FE25EB2
:20126000FB4F808186FB882780F90895CF93CFB7F89480914204811127C0EEE1F6E08491DF
:20128000E0E0F6E09491E82FF0E0EE0FFF1FE75CF94FA591B4918C91892321F461E081E10A
:2012A0000E94E40F61E081E10E94AB0F8CB580618CBD8CB580648CBD61E08FE00E94AB0FB5
:2012C00061E080E10E94AB0F809142048F5F80934204CFBFCF9108952F923F924F925F9283
:2012E0006F927F928F929F92AF92BF92CF92DF92EF92FF920F931F93CF93DF9300D000D04C
:20130000CDB7DEB74C017C836B836A015901C8018701AC014C195D0957FF03C05195419517
:20132000510995016B817C81261B370B37FF03C031952195310922242394312C24173507D1
:2013400014F0212C312C2114310459F03A2D2B2D5C01832F922F3B812C81DC82CB82C32E98
:20136000D22EAB81BC81AA16BB065CF43C2D2D2D6C01832F922F3B812C81BC82AB82A32EEB
:20138000B22E2501EB81FC814E1A5F0A3C016C187D0877FE03C0719461947108720157FED4
:2013A00003C0FFEFEF1AFF0AF594E794C816D9062CF421E030E03A83298324C06FEF7FEF5F
:2013C0007A8369831FC0D401ED91FC910480F581E02D980121143104D9F04B815C81B60132
:2013E000C4010995E618F708F7FE06C0E981FA81CE0EDF1EE40CF51C2B813C812F5F3F4F8E
:201400003C832B836B817C81A616B706E4F604C0A6016B817C81E4CF0F900F900F900F90A0
:20142000DF91CF911F910F91FF90EF90DF90CF90BF90AF909F908F907F906F905F904F90F8
:201440003F902F9008956F927F928F929F92AF92BF92CF92DF92EF92FF920F931F93CF93D1
:20146000DF93EC015B016A0139014801E881F9810284F385E02D87010995E881F981A60125
:20148000480D591D415051090284F385E02D9301B501CE010995E881F9810084F185E02DEA
:2014A0009401A601B501CE010995E881F981B501660D771D615071090084F185E02D940166
:2014C000A601CE010995DF91CF911F910F91FF90EF90DF90CF90BF90AF909F908F907F9011
:2014E0006F900895EF92FF920F931F93DC01ED91FC91240F351F215031090680F781E02DC5
:20150000780189019B0109951F910F91FF90EF900895EF92FF920F931F93DC01ED91FC9145
:20152000260F371F215031090680F781E02D78018A0109951F910F91FF90EF9008956F92CC
:201540007F928F929F92AF92BF92CF92DF92EF92FF920F931F93CF93DF935C014A01690178
:201560003801EB01C60ED71ECC15DD0574F4D501ED91FC910084F185E02D87019301A401A9
:20158000BE01C50109952196EFCFDF91CF911F910F91FF90EF90DF90CF90BF90AF909F90FA
:2015A0008F907F906F900895EF92FF920F931F93DC01ED91FC9111971A960D911C911B97BE
:2015C00018962D913C9119970684F785E02D7B0140E050E060E070E009951F910F91FF9036
:2015E000EF9008950895FC01138212828AE493E091838083758364835783468371876087B3
:2016000053874287158A158614861786168621E0248B8FEF9FEF938B828B918B808B268B5B
:2016200008952F923F924F925F926F927F928F929F92AF92BF92CF92DF92EF92FF920F932D
:201640001F93CF93DF93CDB7DEB72C970FB6F894DEBF0FBECDBF9C878B873A0118870F8340
:20166000FA86E986CD82DC0118968D919C911997681779070CF094C01A968D919C911B97AA
:20168000481759070CF08CC08C2C912CCB01B6E0CB9E800D911D1124181619060CF080C00A
:2016A000C40153E0880F991F5A95E1F7860D971D181619060CF074C0F5E02F9F200111245F
:2016C0005B016B011C82920126533F4F2901461A570A3C81353031F0F201EA0DFB1D449105
:2016E0004B8301C01B827A82698213011E828B8180FF13C0AB85BC85ED91FC91BD81B1302A
:2017000031F40480F581E02D2F81388519C00684F785E02DEF80F8841EC0E985FA852F81DE
:201720003885E217F307F9F0AB85BC85ED91FC91BD81B13059F40480F581E02D29853A85B4
:20174000A101B5018B859C8509950DC00684F785E02DE984FA848401940149815A81B60121
:201760008B859C850995EB81E695EB83FE81FF5FFE8329813A81280D391D3A8329833FEF60
:20178000231A330AF83009F0B2CF4C814F5F4C83C80CD91C8FEFA81AB80A463009F099CF41
:2017A0002C960FB6F894DEBF0FBECDBFDF91CF911F910F91FF90EF90DF90CF90BF90AF9096
:2017C0009F908F907F906F905F904F903F902F900895CF92EF92FF920F931F93CF93DF9319
:2017E000EC01262F6A3049F42C898E859F8538E0239F800D911D112432C06D30A1F1EA8807
:20180000FB88088919894E855F856C857D85CC880E94110B2C89422F50E08C859D8536E0B7
:20182000239F800D911D11249D878C872E892223D1F06AEF64039001659F300D11246885CE
:201840007985260F371F281739076CF463E0440F551F6A95E1F78E859F85840F951F9F879B
:201860008E871D861C8681E090E0DF91CF911F910F91FF90EF90CF900895FC01758764872F
:20188000578746870895611101C061E0FC01648B0895FC01738B628B718B608B0895FC019A
:2018A00077FD68C080859185681779070CF062C057FD60C082859385481759070CF05AC0EC
:2018C0008589823059F08330B1F08130D1F48FE290E0861B970BBA01AC0113C083E590E0FE
:2018E000FC01E61BF70BBF018FE290E0FC01E41BF50BAF0106C083E590E0841B950BAB0112
:20190000BC0164357105B0F54033510598F5CA01E3E095958795EA95E1F747705527232B54
:20192000A1F024E5289FF001299FF00D1124E60FF71FEC5FFE4F81E090E0042E01C0880F5D
:201940000A94EAF79081982B14C024E5289FF001299FF00D1124E60FF71FEC5FFE4F81E0A1
:2019600090E0042E01C0880F0A94EAF780959081982390830895EF92FF920F931F93CF9395
:20198000DF931F92CDB7DEB77C01062F142F40E350E064E570E029830E94F30A82E693E004
:2019A000F701918380838FEF878B808F018F2981228F138F0F90DF91CF911F910F91FF909E
:2019C000EF900895FC0187898F3F21F481E0908D9F3F09F080E008950F931F93CF93DF9381
:2019E0001F92CDB7DEB78C0169830E94E20C6981882339F06EBD00000DB407FEFDCF8EB556
:201A00002DC088E090E030E8D8015E96ED91FC915F97408191962C919197209524232083AF
:201A20005C96ED91FC915D9790962C91432F462321F04081422B408304C040812095242374
:201A40002083D8015E96ED91FC915F97208191964C91242B208336950197B1F60F90DF9165
:201A6000CF911F910F9108951F93CF93DF93EC01162F60E0898D0E94E40F8B8D18161CF420
:201A800060E00E94E40F612FCE010E94EC0C8B8D181634F461E0DF91CF911F910C94E40FB6
:201AA000DF91CF911F9108951F93CF93DF93EC01162F67FD1FE761E2CE010E94340D612F62
:201AC0006068CE010E94340D60E2CE01DF91CF911F910C94340DDF92EF92FF920F931F9343
:201AE000CF93DF93EC01F4E0EF2EF1E0FF2ED12C6D2D6064CE010E94340D60E8CE010E9470
:201B0000340D61E0898D0E94E40F8B8D18161CF460E00E94E40F00E010E0F701E00FF11FA6
:201B20006081CE010E94EC0C0F5F1F4F04351105A1F78B8D18161CF461E00E94E40FD39405
:201B400084E5E80EF11C86E0D812D2CF60E4CE01DF91CF911F910F91FF90EF90DF900C94D8
:201B6000340D0F931F93CF93DF93EC01162F042F0E94E20C882379F00E9436098CB58C7FC6
:201B80008CBD8DB58E7F8DBD8CB5837F8CBD8CB58F7D8CBD34C061E08F890E94AB0F61E057
:201BA000888D0E94AB0F888D992787FD9095FC01E35FF94FE491F0E0EE0FFF1FE55DF94FC5
:201BC000259134913F8F2E8FFC01E151FA4F849189A38F89992787FD9095FC01E35FF94F3E
:201BE000E491F0E0EE0FFF1FE55DF94F259134913D8F2C8FFC01E151FA4F849188A361E000
:201C0000898D0E94AB0F8A8D18161CF461E00E94AB0F8B8D18161CF461E00E94AB0F8A8D56
:201C200018166CF460E00E94E40F64EF71E080E090E00E94BF0E61E08A8D0E94E40F61E22E
:201C4000CE010E94340D602F6061CE010E94340D17FD1FE7612F6068CE010E94340D60E26A
:201C6000CE010E94340D6CE0CE010E94340DCE01DF91CF911F910F910C946B0D28EF31E085
:201C8000E4E0F1E0DF01A9011D9241505040E1F7DC011D961C921E921C971F961C921E92C9
:201CA0001E9708951F920F920FB60F9211242F933F938F939F93AF93BF93809144049091EF
:201CC0004504A0914604B09147043091430423E0230F2D3720F40196A11DB11D05C026E809
:201CE000230F0296A11DB11D209343048093440490934504A0934604B09347048091480465
:201D000090914904A0914A04B0914B040196A11DB11D8093480490934904A0934A04B09390
:201D20004B04BF91AF919F918F913F912F910F900FBE0F901F9018953FB7F894809148049E
:201D400090914904A0914A04B0914B0426B5A89B05C02F3F19F00196A11DB11D3FBF6627FE
:201D6000782F892F9A2F620F711D811D911D42E0660F771F881F991F4A95D1F70895CF92BF
:201D8000DF92EF92FF92CF93DF936B017C010E949C0EEB01C114D104E104F10489F00E942C
:201DA0002D160E949C0E6C1B7D0B683E734090F381E0C81AD108E108F108C851DC4FEACFAE
:201DC000DF91CF91FF90EF90DF90CF900895789484B5826084BD84B5816084BD85B58260DB
:201DE00085BD85B5816085BDEEE6F0E0808181608083E1E8F0E010828081826080838081A9
:201E000081608083E0E8F0E0808181608083E1E9F0E0808182608083808181608083E0E933
:201E2000F0E0808181608083E1ECF0E0808184608083808182608083808181608083E3ECCE
:201E4000F0E0808181608083E0ECF0E0808182608083E2ECF0E0808181608083EAE7F0E027
:201E60008081846080838081826080838081816080838081806880830895823108F08251A8
:201E8000E82FF0E0EB53FA4FE49180917B00E3FB222720F930E095E0220F331F9A95E1F784
:201EA0008F7D822B80937B00E7708091FC0220E4829FC0011124E82BE0937C0080917A00CD
:201EC000806480937A0080917A0086FDFCCF809178002091790090E0922B089590E0FC01CE
:201EE0003197EF30F105B0F5EA5AFF4F0C94CE17809180008F7703C0809180008F7D80933F
:201F00008000089580918000877FF9CF84B58F7702C084B58F7D84BD0895809190008F777A
:201F200007C0809190008F7D03C080919000877F8093900008958091C0008F7703C08091D8
:201F4000C0008F7D8093C00008958091C200877F8093C2000895CF93DF9390E0FC01E15187
:201F6000FA4F2491FC01E35FF94F8491882349F190E0880F991FFC01E75CF94FA591B49120
:201F8000855D994FFC01C591D4919FB7611108C0F8948C91209582238C93888182230AC095
:201FA000623051F4F8948C91322F309583238C938881822B888304C0F8948C91822B8C93BC
:201FC0009FBFDF91CF9108950F931F93CF93DF931F92CDB7DEB7282F30E0F901EF52FA4F59
:201FE0008491F901E151FA4F1491F901E35FF94F04910023C9F0882321F069830E946E0FF6
:202000006981E02FF0E0EE0FFF1FE55DF94FA591B4919FB7F8948C91611103C0109581235A
:2020200001C0812B8C939FBF0F90DF91CF911F910F9108950E94EE17CF93DF931F92CDB7AA
:20204000DEB76983DC01ED91FC910280F381E02D41E050E0BE016F5F7F4F09950F90DF91BB
:20206000CF910895CF93DF93EC018C859D8597FF05C082E00E9413139D878C878C859D8580
:20208000DF91CF91089583E00C946815FC018485958597FD06C082E00E94BB1290E0019601
:2020A000089582E00E94BB1290E00895FC018485958597FD05C02FEF3FEF358724870895DC
:2020C00082E00C941313CF93DF93EC0180910403882331F083E00E9444131816190634F066
:2020E00081E090E09B838A8380E090E0DF91CF910895FC0120812E5F208342E450E067E438
:2021000076E080E80C94DF13FC0181819081913A59F4813209F03CC047E050E06DEF72E09A
:2021200080E00E94DF1343C0913291F5803239F467E070E08DEF92E00E94101406C08232BB
:2021400009F035C08281809304038091FD029091FE02A091FF02B0910003803B9440A10598
:20216000B105C1F48091040380FD14C087E797E790930108809300082BE088E190E00FB6AF
:20218000F894A895809360000FBE209360000FC080E0089588E10FB6F89480936000109288
:2021A00060000FBEA895109201081092000881E008952FEF3FEFFC01358724870895109273
:2021C0004F0410924E0488EE93E0A0E0B0E08093500490935104A0935204B09353048AE74C
:2021E00093E090934D0480934C048FEF9FEF9093590480935804089508950E94E70E0E9427
:20220000FC108CE994E00E94C8150E941504C0E0D0E00E9437052097E1F30E940000F9CF6C
:20222000CF92DF92EF92FF920F931F93CF93DF936C017A01EB01E60EF71E00E010E0CE1502
:20224000DF0561F06991D601ED91FC910190F081E02DC6010995080F191FF1CFC801DF91B1
:20226000CF911F910F91FF90EF90DF90CF9008956115710581F0DB010D900020E9F7AD01B1
:2022800041505109461B570BDC01ED91FC910280F381E02D099480E090E008950C943811B2
:2022A000DC01ED91FC910190F081E02D099466E873E00C9438110F931F93CF93DF93EC01EB
:2022C0000E9438118C01CE010E945711800F911FDF91CF911F910F9108950F931F93CF93FB
:2022E000DF93EC010E9450118C01CE010E945711800F911FDF91CF911F910F9108958F92F9
:202300009F92AF92BF92CF92DF92EF92FF920F931F93CF93DF93CDB7DEB7A1970FB6F8944C
:20232000DEBF0FBECDBF7C01C42EE52FCB01D22E19A221E02D1510F02AE0D22E8E010F5D55
:202340001F4F8D2C912CA12CB12C6C2D7E2FA50194010E948D178C2DD29E801911240150E0
:2023600011098A3014F4805D01C0895CF8018083211531054105510521F0C22EE32FCA011C
:20238000E4CFB801C7010E943811A1960FB6F894DEBF0FBECDBFDF91CF911F910F91FF90F1
:2023A000EF90DF90CF90BF90AF909F908F900895CF92DF92EF92FF920F931F93CF93DF934B
:2023C000EC016A017B012115310579F4E881F9810190F081E02D642FDF91CF911F910F91AB
:2023E000FF90EF90DF90CF9009942A303105E9F477FF1AC06DE20E9450118C0144275527E1
:20240000BA014C195D096E097F092AE0CE010E947F11800F911FDF91CF911F910F91FF903E
:20242000EF90DF90CF9008952AE0B701A601CE01DF91CF911F910F91FF90EF90DF90CF907E
:202440000C947F119A01AB01662757FD6095762F0C94D8110F931F93CF93DF93EC019A0151
:20246000AB01662757FD6095762F0E94D8118C01CE010E945711800F911FDF91CF911F9185
:202480000F9108954091A0045091A10420919E0430919F0442175307B4F49091E8009570E4
:2024A000E1F39091E80092FD19C08093F1008091A0049091A10401968F739927892B19F43E
:2024C0008EEF8093E8008091A0049091A10401969093A1048093A00481E0089580E00895F8
:2024E000CF92DF92FF920F931F93CF93DF931F92CDB7DEB7082F162F862F880F8E5F9983B6
:202500000E94421283E00E944212F02EC02E9981D92E8C2D8F19811778F4F60184910E942C
:202520004212082F80E00E9442128023FFEFCF1ADF0A8111EECF01C081E00F90DF91CF9177
:202540001F910F91FF90DF90CF900895615030F02091F100FC0120830196F8CF289884E696
:202560008093A30408952FB7FC012083F89467706093E9000895CF93DF931F92CDB7DEB704
:20258000682FCE0101960E94B3128091F20099819FBF0F90DF91CF910895FF920F931F936B
:2025A000CF93DF9300D0CDB7DEB7F62E8A019091A204992311F057FF03C08FEF9FEF2BC01B
:2025C000682FCE0101967A830E94B3128091F20090E0A8017A81801791070CF4AC01EF2D8B
:2025E000F72FF40E84E6FE1639F028988093A3049091F1009193F7CF4115510521F08091C8
:20260000F200882321F089818FBFCA0104C08BE68093E800F8CF0F900F90DF91CF911F9134
:202620000F91FF900895CF93DF931F92CDB7DEB741E050E0BE016F5F7F4F0E94CD1201976B
:2026400019F4898190E002C08FEF9FEF0F90DF91CF910895CF93DF931F92CDB7DEB7682FE4
:20266000CE0101960E94B3129091E800892F807295FF04C09091F20080E4891B99819FBFEF
:202680000F90DF91CF9108956F927F928F929F92AF92BF92CF92DF92EF92FF920F931F9300
:2026A000CF93DF931F92CDB7DEB7782E7B01C42EB52E8091A204882369F0042F152F8AEFDA
:2026C000D82E872D8072982E9AE3A92E872D8074882E11C08FEF9FEF57C0872D0E942A134F
:2026E000682E81110CC0DA94A9F361E070E080E090E00E94BF0E0115110579F73BC0282F1E
:2027000030E0021713070CF4602E672DCE0101960E94B3128091E80085FF29C0262D30E0BE
:20272000021B130B992039F06A948FEF6816B1F01092F100F9CFF701862D77FE07C08150CE
:2027400058F094919093F1003196F9CF815020F091919093F100FACFE20EF31E8091E8008F
:2027600085FF0FC00115110511F481100AC089818FBFC1CF5D9884E68093A4048C2D9B2DF7
:2027800003C0A092E800F3CF0F90DF91CF911F910F91FF90EF90DF90CF90BF90AF909F9042
:2027A0008F907F906F9008951092E9001092A1041092A00490939F0480939E040895CF92BE
:2027C000DF92FF920F931F93CF93DF9300D0CDB7DEB7F82E8A016B0101151105B1F0F60105
:2027E000F7FE02C0849101C0808149835A830E94421201501109FFEFCF1ADF0A49815A81DC
:202800008111EACF8FEF9FEF01C0CA010F900F90DF91CF911F910F91FF90DF90CF9008957D
:202820001F93CF93DF931F92CDB7DEB7162F2091E80022FFFCCF612F79830E94A6128BEF1E
:202840008093E800812F7981972F0F90DF91CF911F910895CF93DF931F92CDB7DEB7198218
:20286000CE0101960E947910CE0101960E944C16898190E00F90DF91CF9108951F920F9285
:202880000FB60F921124EF92FF920F931F932F933F934F935F936F937F938F939F93AF9325
:2028A000BF93EF93FF93CF93DF93CDB7DEB76297DEBFCDBF1092E9008091E80083FFEBC0F2
:2028C00068E0CE010A960E94A61282EF8093E8009A8597FF05C08091E80080FFFCCF03C0FB
:2028E0008EEF8093E800892F807609F0B9C08B85811105C01092F1001092F100C5C0282FD7
:202900002D7F213009F4C0C0853049F48091E80080FFFCCF8C8580688093E300B5C08630EE
:2029200009F076C02D85E888F988223071F580E090E02A8B0E94D4130E942A1499E08E0117
:202940000F5F1F4FF801392F11923A95E9F799832A892A8391E09E8390E898879AEF99879A
:202960002091A0043091A104275F3F4F3C832B838D83C7010E94D41349E050E0B80180E048
:202980000E94DF130E942A147FC0C7012A8B0E94D4132A89223241F482E290E00E9457165F
:2029A000892B09F071C074C0213069F488899989089711F420939D0480919D04811118C010
:2029C00060EA76E01AC0233009F062C08C85882391F0823021F462E18BEB96E006C0813065
:2029E00009F056C068E082EB96E00E9470124AC06EE876E002C06EEC76E06115710509F468
:202A000047C0FB01449150E080E80E94DF133CC0873009F43DC0883021F481E08093F100D3
:202A200033C0893089F5937099F5EAE8F6E081E021E096E38093E9002093EB003491309336
:202A4000EC009093ED008F5F3196853099F78EE78093EA001092EA008C858093A20414C0E4
:202A6000888999890E94D4138E85811105C0CE010A960E94841006C0823051F4CE010A965F
:202A80000E947F16882321F08EEF8093E80003C081E28093EB0062960FB6F894DEBF0FBEF4
:202AA000CDBFDF91CF91FF91EF91BF91AF919F918F917F916F915F914F913F912F911F91AA
:202AC0000F91FF90EF900F900FBE0F901F9018958093E9008091F200882319F08AE38093AE
:202AE000E80008951F920F920FB60F9211242F933F934F935F936F937F938F939F93AF9352
:202B0000BF93EF93FF938091E1001092E10083FF0FC01092E90091E09093EB001092EC00F1
:202B200092E39093ED001092A20498E09093F00082FF1DC083E00E9468158091A4048823F9
:202B400039F08091A40481508093A404882369F08091A304882359F08091A30481508093BB
:202B6000A304811104C0289A02C05D9AF1CFFF91EF91BF91AF919F918F917F916F915F912D
:202B80004F913F912F910F900FBE0F901F9018951092A20481E08093D70080EA8093D80076
:202BA00082E189BD09B400FEFDCF61E070E080E090E00E94BF0E80E98093D8008CE0809342
:202BC000E2001092E000559A209A08954F925F926F927F92AF92BF92CF92DF92EF92FF92F1
:202BE0000F931F93CF93DF93CDB7DEB729013A01621B730B840B950B29893A894B895C89D7
:202C00002A193B094C095D09298B3A8B4B8B5C8B9B01AC0169897A898B899C890E9471179B
:202C2000E418F50806091709A80197010E94AF172A0D3B1D4C1D5D1DCA01B901DF91CF91FC
:202C40001F910F91FF90EF90DF90CF90BF90AF907F906F905F904F9008950895FF920F9371
:202C60001F93CF93DF93EC01F62EE881F9810480F581E02D09958C01E881F9810680F781C7
:202C8000E02D6F2DCE010995C8019927DF91CF911F910F91FF900895FC0120812F5F20837A
:202CA00049E150E062E577E080E80C94DF1345E650E06BE677E080E80C94DF13EF92FF9213
:202CC0000F931F93CF93DF931F92CDB7DEB789838B017A0141E050E0BE016F5F7F4F84E0DF
:202CE0000E944413A701B80184E40E9444130F90DF91CF911F910F91FF90EF900895FC01B2
:202D000091818081813A31F481E0913091F0933089F411C0813271F49B3021F482818093FE
:202D2000060305C09A3031F482818093050381E00895089580E0089548E050E082E00C94C6
:202D40005E16CF93DF93DC01683818F0E8E7E60F25C0E62FF0E067FF11C0E058F10981E04E
:202D600090E001C0880FEA95EAF714969C911497982B14969C931497E0E010C0EE52F94F4A
:202D8000E491EE2309F440C0E7FF08C014968C911497826014968C931497EF7716968C910B
:202DA00016978E1741F117968C9117978E1719F118968C9118978E17F1F019968C911997EC
:202DC0008E17C9F01A968C911A978E17A1F01B968C911B978E1779F080E090E0ED01C80FBE
:202DE000D91F2E81211102C0EE8305C0019686309105A1F709C0BD016C5F7F4FCD010E94F7
:202E00009C1681E090E008C081E090E013969C938E93129780E090E0DF91CF910895683817
:202E200018F0E8E7E60F25C0E62FF0E067FF12C0E058F10921E030E001C0220FEA95EAF72F
:202E40002095DC0114963C911497322314963C93E0E00FC0EE52F94FE491EE2329F1E7FF53
:202E600008C0DC0114962C9114972D7F14962C93EF7720E030E0EE2351F0DC01A20FB31F5E
:202E800016964C9116974E1302C016961C922F5F3F4F2630310579F7BC016C5F7F4F0E946F
:202EA0009C1681E090E0089580E090E00895FC011682178210861186128613861482BC01A6
:202EC0006C5F7F4F0C949C161092B1041092A8041092A7048BE993E09093A6048093A504A5
:202EE0000895DB018F939F930E94D417BF91AF91A29F800D911DA39F900DB29F900D11246A
:202F00000895991B79E004C0991F961708F0961B881F7A95C9F780950895A1E21A2EAA1B7D
:202F2000BB1BFD010DC0AA1FBB1FEE1FFF1FA217B307E407F50720F0A21BB30BE40BF50B4E
:202F4000661F771F881F991F1A9469F760957095809590959B01AC01BD01CF010895052E0E
:202F600097FB1EF400940E94C61757FD07D00E948D1707FC03D04EF40C94C61750954095DA
:202F8000309521953F4F4F4F5F4F089590958095709561957F4F8F4F9F4F0895EE0FFF1FB8
:202FA0000590F491E02D09940E94DF17A59F900DB49F900DA49F800D911D11240895A29F53
:202FC000B001B39FC001A39F700D811D1124911DB29F700D811D1124911D089581E090E030
:202FE000F8940C94F317F894FFCF0100000000000000000000000000000000000000000040
:203000000000000000000000000000000000000000000000C0E0F0F8FCFCFEFFFCE0000057
:20302000000000000000000000000000000000000000000000000000000000000000000090
:2030400000000000000000000000000000000000000000F8F8F8F8F8F8F8F8F8F8F8F8F0E0
:20306000F0E0E0C080C0FCFFFFFFFF7F3F7FFFFFFFFFFF0000000000000000000000000070
:20308000000000000000000000000000000000000000000000000000000000000000000030
:2030A00000000000000000000F1F3F7FFFFFFFFFFFFFFFFFE7C7C7878F9F9FFFFFFFC1C0E5
:2030C000E0FCFFFFFFFFFFFCFCFCFCFEFEFEFCFCF8F8F0E0C0C000000000000000000000F7
:2030E000000000000000000000000000000000000000000000000000000000000000008050
:20310000C0E0F1FBFFFFFFFFFF7F1F0F0F87E7FFFFFF1F1F3FF9F8F8F8F8F8F8FDFFFFFFC1
:20312000FFFFFFFFFFFF7F3F0F0701000000000000000000000000000000000000000000C0
:203140000000000000000000000000000000000000F0FEFFFFFFFFFFFFFFFFFFFFFE7E3FD0
:203160003F0F1FFFFFFFFCF0E0F1FFFFFFFFFFFCF001010101010101010000000000000039
:2031800000000000000000000000000000000000000000000000000000000000000000002F
:2031A000000000000003030303030303030101010100000000000000030F1F3F7F7FFFFF87
:2031C000FFFF7F7F1F030000000000000000000000000000000000000000000000000000D1
:2031E0000000000000000100E1000000000000010148656C6C6F210066726F6D204D65410F
:20320000726D2E636F6D004D6964646C6520617420004C6566742061742000526967687460
:203220002061742000436C617720617420003B0000000000E90B10111A106C09720A890ADF
:20324000230A9F0AD40AF20A00000000E90B10114F0C6C09720A890A230A9F0AD40AF20A1A
:20326000000000001C10631046105610321043100D0A006E616E00696E66006F7666002E54
:2032800000000000002E161011A1160F17571700FFFFFFFFFFFFFFFFFFFFFFFFFFFFFFFF8E
:2032A000FFFFFFFFFFFFFFFFFFFFFFFFFFFFFFFFFFFFFFFFFFFFFFFFFFFFFFFFFFFFFFFF2E
:2032C000FFFFFFFFFFFFFFFFFFFFFFFFFFFFFFFFFFFFFFFFFFFFFFFFFFFFFFFFFFFFFFFF0E
:2032E000FFFFFFFFFFFFFFFFFFFFFFFFFFFFFFFFFFFFFFFFFFFFFFFFFFFFFFFFFFFFFFFFEE
:20330000FFFFFFFFFFFFFFFFFFFFFFFFFFFFFFFFFFFFFFFFFFFFFFFFFFFFFFFFFFFFFFFFCD
:2070000055C000006EC000006CC000006AC0000068C0000066C0000064C0000062C0000043
:2070200060C000005EC00000FCC400005AC0000058C0000056C0000054C0000052C00000E4
:2070400050C000005DC000004CC000004AC0000048C0000046C0000044C0000042C00000D9
:2070600040C000003EC000003CC000003AC0000038C0000036C0000034C0000032C0000048
:2070800030C000002EC000002CC000002AC0000028C0000026C0000024C0000022C00000A8
:2070A00020C000001EC000001CC0000011241FBECFEFDAE0DEBFCDBF11E0A0E0B1E0E6E4B7
:2070C000FFE702C005900D92A43BB107D9F711E0A4EBB1E001C01D92AD3CB107E1F74FD351
:2070E00030C78ECFF89410926F001092810081E085BF15BE47985D9A289A0C94000008952F
:207100001F920F920FB60F9211242F938F939F93EF93FF9310928500109284008091B40145
:207120009091B501009741F001979093B5018093B401892B09F45D9A8091B6019091B7012E
:20714000009741F001979093B7018093B601892B09F4289A8091BA019091BB010196909354
:20716000BB018093BA01E0E0F0E0859194918F5F9F4F49F08091B8019091B9010196909346
:20718000B9018093B801FF91EF919F918F912F910F900FBE0F901F90189584E08093E90082
:2071A0000DC08091E8008B778093E80003C08EB3882351F08091E80082FFF9CF8091E800E1
:2071C00085FFEFCF8091F1000895982F83E08093E9008091E80085FD0DC08091E8008E7762
:2071E0008093E80003C08EB3882369F08091E80080FFF9CF9093F1005D9884E690E0909346
:20720000B5018093B40108954F925F926F927F928F929F92AF92BF92CF92DF92EF92FF92A7
:207220000F931F93CF93DF9384E08093E9008091E80082FF57C2289884E690E09093B701BE
:207240008093B601AADF182F853481F48CE49DE19093B9018093B80107B600FCFDCFF999B8
:20726000FECF81E180935700E89503C0843519F494DF8DE00DC28C34E1F38035D1F38437F8
:2072800021F484E4A2DF80E003C2813611F489E5FFC18134B1F481DF182F7FDF90E0880F7B
:2072A000991FAA2797FDA095BA2F312F330F20E0442737FD4095542F822B932BA42BB52BE0
:2072C000B8C1803711F483E5E3C1833549F4C0E0D1E089917ADF21E0C730D207D1F7D9C181
:2072E000863521F481E371DF80E3D2C1833731F487E86BDF85E969DF8EE1CAC18536B9F464
:20730000E0E0F0E093E085E090935700E89507B600FCFDCF80935700E89507B600FCFDCF1D
:20732000E058FF4FA0E7E030FA0771F7A2CF823739F4E1E0F0E089E0809357008491A8C18E
:20734000863439F4E0E0F0E089E08093570084919FC18E3439F4E3E0F0E089E08093570019
:20736000849196C1813539F4E2E0F0E089E08093570084918DC1823631F489E526DF80E046
:2073800024DF80E885C1823419F0873609F0E5C01092B9011092B80100DF082FFEDEF82E53
:2073A000FCDE682E8554823008F071C1902F80E0CF2DD0E0C82BD92B10926F00173609F08F
:2073C0004BC081E180935700E895DD24CC24C3943FC0E090BD01F090BE010091BF011091B3
:2073E000C001B6E46B16D9F4ED2DF0E0EE29FF29E4918E2FEADEDD2081F082E090E0A0E001
:20740000B0E0E80EF91E0A1F1B1FE092BD01F092BE010093BF011093C001DC2418C0D80193
:20742000C701B695A7959795879575D5CEDE82E090E0A0E0B0E0E80EF91E0A1F1B1FE092FB
:20744000BD01F092BE010093BF011093C0012197209709F0BECF7DC08090BD019090BE0197
:20746000A090BF01B090C00196E4691609F05DC083E0F40180935700E89507B600FCFDCF48
:2074800054C0F6E46F1661F5772031F1E090BD01F090BE010091BF011091C0017EDED82EE8
:2074A000CC24852D90E08C299D29F7010C0140925700E895112482E090E0A0E0B0E0E80E87
:2074C000F91E0A1F1B1FE092BD01F092BE010093BF011093C00102C060DE582E742423C009
:2074E000E090BD01F090BE010091BF011091C00116950795F794E79450DE682FC70113D5AA
:207500008091BD019091BE01A091BF01B091C0010296A11DB11D8093BD019093BE01A093BF
:20752000BF01B093C001219704C05524772444244394209709F0A5CF96E4691641F485E001
:20754000F40180935700E89507B600FCFDCF8DE03CDE82E080936F009CC0833471F4009156
:20756000BD011091BE0119DE90E021E0F8010C0120935700E89511247CCE833619F5E09042
:20758000BD01F090BE010091BF011091C00105DEF701E16090E021E00C0120935700E8951A
:2075A000112482E090E0A0E0B0E0E80EF91E0A1F1B1FE092BD01F092BE010093BF011093DD
:2075C000C00157CE8D3661F4E091BD01F091BE0185E080935700E89507B600FCFDCF49CE56
:2075E000823551F4E091BD01F091BE0105911491812FEBDD802F4CC0843421F5E090BD01B6
:20760000F090BE010091BF011091C00116950795F794E794C2DD682FC70185D48091BD0105
:207620009091BE01A091BF01B091C0010296A11DB11D8093BD019093BE01A093BF01B0936A
:20764000C00117CE843609F5E090BD01F090BE010091BF011091C001D801C701B695A79584
:207660009795879558D4B1DD82E090E0A0E0B0E0E80EF91E0A1F1B1FE092BD01F092BE0145
:207680000093BF011093C00104C08B3111F08FE39CDD83E08093E9009091E8008091E80066
:2076A0008E778093E80095FF04C010C08EB38823C9F08091E80080FFF9CF8091E8008E77BF
:2076C0008093E80003C08EB3882361F08091E80080FFF9CF84E08093E9008091E8008B7714
:2076E0008093E800DF91CF911F910F91FF90EF90DF90CF90BF90AF909F908F907F906F90A9
:207700005F904F9008959091C501892F8F77813249F58091C6018032A1F0813219F5913AC1
:2077200009F58091E800877F8093E8008CE091E067E070E027D28091E8008B778093E800EE
:207740000895913279F48091E800877F8093E8008CE091E067E070E079D28091E8008E77A5
:207760008093E800089582E061EC42E0D1D083E061E842E1CDD084E060E842E1C9C01F9389
:20778000209100081092000844B714BE88E10FB6F89480936000109260000FBE80E8E0E095
:2077A000F0E00FB6F89480936100E09361000FBE31E035BF92E095BF3F9A209A559A809333
:2077C00061001092610047985D9A289A109289008AEF8093880090936F0083E080938100E5
:2077E000859194918F5F9F4F11F03093BC01942F41FF19C0809109012817A9F08093000807
:20780000789480911301882339F08091BA019091BB018F5E9240C8F3F8941092000881E0A9
:20782000809313010CC090FF04C08091BC01882351F493FF09C080910901281729F0809165
:20784000BC01882309F04EDCD4D078941092B9011092B8011EEF20C0D7DC4BD38091B801AE
:207860009091B90181549F4110F0109213018091C1019091C20101969093C2018093C101B9
:20788000292F97FF03C0512F591B252F220F281710F4479801C0479A809113018823E1F653
:2078A0008091E00081608093E0001CDC80E090E01F910895FA01923049F0933061F0913023
:2078C000F9F484E191E022E130E01EC086E291E02EE330E019C0882329F484E691E024E07A
:2078E00030E012C0813029F488E691E02EE130E00BC0823029F488E891E02AE230E004C07F
:2079000080E090E020E030E091838083C90108958093E9008091EB0081608093EB00109290
:20792000ED006093EC004093ED008091EE00881F8827881F08958091C50188238CF403C05D
:207940008EB38823B1F08091E80082FFF9CF8091E8008B778093E80008958EB3882349F0A0
:207960008091E80080FFF9CF8091E8008E778093E8000895EF92FF920F931F9345D04CD09A
:2079800008ED10E0F80180818F77808380818068808380818F7D808319BC1EBA1092C301F0
:2079A00080EEE82EF12CF70180818B7F8083F80180818160808380E060E042E0A9DFE1EE29
:2079C000F0E080818E7F8083E2EEF0E0808181608083808188608083F70180818E7F80834C
:2079E000F8018081806180831F910F91FF90EF900895E7EDF0E08081816080838AE482BF76
:207A000081E08093C401B6CFE8EDF0E080818E7F80831092E20008951092DA001092E100D2
:207A200008951F920F920FB60F9211242F933F934F935F936F937F938F939F93AF93BF9358
:207A4000EF93FF938091DA0080FF1BC08091D80080FF17C08091DA008E7F8093DA00809198
:207A6000D90080FF0BC080E189BD82E189BD09B400FEFDCF81E08EBB3BD203C019BC1EBAE5
:207A800037D28091E10080FF17C08091E20080FF13C08091E2008E7F8093E2008091E20068
:207AA00080618093E2008091D80080628093D80019BC85E08EBB1CD28091E10084FF2CC068
:207AC0008091E20084FF28C080E189BD82E189BD09B400FEFDCF8091D8008F7D8093D80091
:207AE0008091E1008F7E8093E1008091E2008F7E8093E2008091E20081608093E2008091C4
:207B0000C301882331F48091E30087FD02C081E001C084E08EBBECD18091E10083FF21C0B6
:207B20008091E20083FF1DC08091E100877F8093E10082E08EBB1092C3018091E1008E7FF7
:207B40008093E1008091E2008E7F8093E2008091E20080618093E20080E060E042E0D8DEFB
:207B6000C7D1FF91EF91BF91AF919F918F917F916F915F914F913F912F910F900FBE0F9002
:207B80001F9018959C014091CB015091CC014617570718F4F90190E044C06115710511F07F
:207BA000AB01F8CF8091E8008E778093E80040E050E0F0CF8EB3882309F444C0853009F4AB
:207BC00043C08091E80083FF02C081E008958091E80082FD31C08091E80080FF22C0809193
:207BE000F3009091F200782F60E0292F30E0262B372B07C081918093F100415050402F5FF1
:207C00003F4F4115510519F02830310598F390E02830310509F491E08091E8008E7780938B
:207C2000E8004115510531F6992321F605C08EB3882341F0853041F08091E80082FFF7CFAE
:207C400080E0089582E0089583E008959C016115710529F48091E8008B778093E800F90192
:207C600026C08EB3882391F1853091F18091E80083FF02C081E008958091E80082FFF1CF04
:207C800006C08091F10081936150704059F02091F3008091F200322F20E090E0822B932B7B
:207CA000892B79F78091E8008B778093E80061157105B9F605C08EB3882341F0853041F047
:207CC0008091E80080FFF7CF80E0089582E0089583E008950F931F93DF93CF9300D0CDB7EE
:207CE000DEB7E5ECF1E08091F100819381E0ED3CF807C9F708DD8091E80083FFE4C08091D9
:207D0000C5019091C601953009F46DC0963040F4913081F1913070F0933009F0D4C02AC03E
:207D2000983009F4A3C0993009F4B2C0963009F0CAC07CC0803809F4C6C0823809F0C3C0ED
:207D40008091C90187708093E9008091EB001092E9002091E800277F2093E80090E025E07F
:207D6000969587952A95E1F781708093F1001092F10087C0882319F0823009F0A4C08F7193
:207D8000823009F0A0C08091C701882331F52091C901277009F497C02093E9008091EB0030
:207DA00080FF1BC0933021F48091EB00806213C08091EB0080618093EB0081E090E002C072
:207DC000880F991F2A95E2F78093EA001092EA008091EB0088608093EB001092E9008091B5
:207DE000E800877F51C0882309F06DC01091C7011F770FB7F8948091E800877F8093E80068
:207E00009ADD8091E80080FFFCCF8091E3008078812B8093E30080688093E300112311F403
:207E200082E001C083E08EBB0FBF4DC08058823008F049C08091C7019091C8016091C9018F
:207E4000AE014F5F5F4F36DDBC01009709F43BC08091E800877F8093E80089819A8192DE29
:207E60008091E8008B778093E8002DC0803859F58091E800877F8093E8008091C301809337
:207E8000F1008091E8008E778093E80054DD1BC08823C9F49091C7019230A8F48091E80044
:207EA000877F8093E8009093C30145DD8091C301882331F48091E30087FD02C081E001C0B7
:207EC00084E08EBB50DC8091E80083FF0AC08091EB0080628093EB008091E800877F809396
:207EE000E8000F900F90CF91DF911F910F91089508951F938EB3882361F01091E9001092E7
:207F0000E9008091E80083FF01C0E4DE17701093E9001F910895F999FECF92BD81BDF89A9C
:207F2000992780B50895262FF999FECF1FBA92BD81BD20BD0FB6F894FA9AF99A0FBE0196DC
:207F40000895F894FFCF4341544552494E4100770008000000000000080112011001020035
:207F600000084F1B059201000201000109023E0002010080320904000001020201000524B9
:207F8000001001042402040524060001070582030800FF09040100020A00000007050402AE
:207FA00010000107058302100001040309041E03500072006F0020004D00690063007200FD
:207FC0006F002000350056002000200000002A0353007000610072006B00460075006E00F0
:1A7FE000200045006C0065006300740072006F006E006900630073000000EC
:00000001FF
